{
  "contractName": "Escrow",
  "abi": [
    {
      "inputs": [
        {
          "internalType": "address",
          "name": "_buyer",
          "type": "address"
        },
        {
          "internalType": "address",
          "name": "_seller",
          "type": "address"
        },
        {
          "internalType": "address",
          "name": "_trustee",
          "type": "address"
        },
        {
          "internalType": "uint256",
          "name": "_amountINR",
          "type": "uint256"
        },
        {
          "components": [
            {
              "internalType": "string",
              "name": "accountHolderName",
              "type": "string"
            },
            {
              "internalType": "string",
              "name": "accountNumber",
              "type": "string"
            },
            {
              "internalType": "string",
              "name": "bankName",
              "type": "string"
            },
            {
              "internalType": "string",
              "name": "ifscCode",
              "type": "string"
            }
          ],
          "internalType": "struct Escrow.BankDetails",
          "name": "_buyerBankDetails",
          "type": "tuple"
        },
        {
          "components": [
            {
              "internalType": "string",
              "name": "accountHolderName",
              "type": "string"
            },
            {
              "internalType": "string",
              "name": "accountNumber",
              "type": "string"
            },
            {
              "internalType": "string",
              "name": "bankName",
              "type": "string"
            },
            {
              "internalType": "string",
              "name": "ifscCode",
              "type": "string"
            }
          ],
          "internalType": "struct Escrow.BankDetails",
          "name": "_sellerBankDetails",
          "type": "tuple"
        },
        {
          "components": [
            {
              "internalType": "string",
              "name": "razorpayApiKey",
              "type": "string"
            },
            {
              "internalType": "string",
              "name": "razorpayApiSecret",
              "type": "string"
            }
          ],
          "internalType": "struct Escrow.PayoutAuth",
          "name": "_payoutAuth",
          "type": "tuple"
        }
      ],
      "stateMutability": "nonpayable",
      "type": "constructor"
    },
    {
      "anonymous": false,
      "inputs": [
        {
          "indexed": true,
          "internalType": "address",
          "name": "approver",
          "type": "address"
        }
      ],
      "name": "ApprovalReceived",
      "type": "event"
    },
    {
      "anonymous": false,
      "inputs": [
        {
          "indexed": false,
          "internalType": "string",
          "name": "buyerAccount",
          "type": "string"
        },
        {
          "indexed": false,
          "internalType": "string",
          "name": "sellerAccount",
          "type": "string"
        },
        {
          "indexed": false,
          "internalType": "uint256",
          "name": "amountINR",
          "type": "uint256"
        }
      ],
      "name": "PayoutRequested",
      "type": "event"
    },
    {
      "inputs": [],
      "name": "amountINR",
      "outputs": [
        {
          "internalType": "uint256",
          "name": "",
          "type": "uint256"
        }
      ],
      "stateMutability": "view",
      "type": "function",
      "constant": true
    },
    {
      "inputs": [],
      "name": "buyer",
      "outputs": [
        {
          "internalType": "address",
          "name": "",
          "type": "address"
        }
      ],
      "stateMutability": "view",
      "type": "function",
      "constant": true
    },
    {
      "inputs": [],
      "name": "buyerApproval",
      "outputs": [
        {
          "internalType": "bool",
          "name": "",
          "type": "bool"
        }
      ],
      "stateMutability": "view",
      "type": "function",
      "constant": true
    },
    {
      "inputs": [],
      "name": "buyerBankDetails",
      "outputs": [
        {
          "internalType": "string",
          "name": "accountHolderName",
          "type": "string"
        },
        {
          "internalType": "string",
          "name": "accountNumber",
          "type": "string"
        },
        {
          "internalType": "string",
          "name": "bankName",
          "type": "string"
        },
        {
          "internalType": "string",
          "name": "ifscCode",
          "type": "string"
        }
      ],
      "stateMutability": "view",
      "type": "function",
      "constant": true
    },
    {
      "inputs": [],
      "name": "payoutAuth",
      "outputs": [
        {
          "internalType": "string",
          "name": "razorpayApiKey",
          "type": "string"
        },
        {
          "internalType": "string",
          "name": "razorpayApiSecret",
          "type": "string"
        }
      ],
      "stateMutability": "view",
      "type": "function",
      "constant": true
    },
    {
      "inputs": [],
      "name": "seller",
      "outputs": [
        {
          "internalType": "address",
          "name": "",
          "type": "address"
        }
      ],
      "stateMutability": "view",
      "type": "function",
      "constant": true
    },
    {
      "inputs": [],
      "name": "sellerApproval",
      "outputs": [
        {
          "internalType": "bool",
          "name": "",
          "type": "bool"
        }
      ],
      "stateMutability": "view",
      "type": "function",
      "constant": true
    },
    {
      "inputs": [],
      "name": "sellerBankDetails",
      "outputs": [
        {
          "internalType": "string",
          "name": "accountHolderName",
          "type": "string"
        },
        {
          "internalType": "string",
          "name": "accountNumber",
          "type": "string"
        },
        {
          "internalType": "string",
          "name": "bankName",
          "type": "string"
        },
        {
          "internalType": "string",
          "name": "ifscCode",
          "type": "string"
        }
      ],
      "stateMutability": "view",
      "type": "function",
      "constant": true
    },
    {
      "inputs": [],
      "name": "trustee",
      "outputs": [
        {
          "internalType": "address",
          "name": "",
          "type": "address"
        }
      ],
      "stateMutability": "view",
      "type": "function",
      "constant": true
    },
    {
      "inputs": [],
      "name": "trusteeApproval",
      "outputs": [
        {
          "internalType": "bool",
          "name": "",
          "type": "bool"
        }
      ],
      "stateMutability": "view",
      "type": "function",
      "constant": true
    },
    {
      "inputs": [],
      "name": "approveByBuyer",
      "outputs": [],
      "stateMutability": "nonpayable",
      "type": "function"
    },
    {
      "inputs": [],
      "name": "approveBySeller",
      "outputs": [],
      "stateMutability": "nonpayable",
      "type": "function"
    },
    {
      "inputs": [],
      "name": "approveByTrustee",
      "outputs": [],
      "stateMutability": "nonpayable",
      "type": "function"
    },
    {
      "inputs": [],
      "name": "disapproveByBuyer",
      "outputs": [],
      "stateMutability": "nonpayable",
      "type": "function"
    },
    {
      "inputs": [],
      "name": "disapproveBySeller",
      "outputs": [],
      "stateMutability": "nonpayable",
      "type": "function"
    }
  ],
  "bytecode": "0x60806040523480156200001157600080fd5b50604051620010d4380380620010d48339810160408190526200003491620003c3565b600080546001600160a01b03808a166001600160a01b031992831617909255600180548984169083161790556002805492881692909116919091179055600384905582518051849160049162000092918391602090910190620001a6565b506020828101518051620000ad9260018501920190620001a6565b5060408201518051620000cb916002840191602090910190620001a6565b5060608201518051620000e9916003840191602090910190620001a6565b5050825180518492506008916200010691839160200190620001a6565b506020828101518051620001219260018501920190620001a6565b50604082015180516200013f916002840191602090910190620001a6565b50606082015180516200015d916003840191602090910190620001a6565b505081518051839250600c916200017a91839160200190620001a6565b506020828101518051620001959260018501920190620001a6565b509050505050505050505062000581565b828054620001b4906200052e565b90600052602060002090601f016020900481019282620001d8576000855562000223565b82601f10620001f357805160ff191683800117855562000223565b8280016001018555821562000223579182015b828111156200022357825182559160200191906001019062000206565b506200023192915062000235565b5090565b5b8082111562000231576000815560010162000236565b80516001600160a01b03811681146200026457600080fd5b919050565b600082601f8301126200027a578081fd5b81516001600160401b038111156200029657620002966200056b565b6020620002ac601f8301601f1916820162000502565b8281528582848701011115620002c0578384fd5b835b83811015620002df578581018301518282018401528201620002c2565b83811115620002f057848385840101525b5095945050505050565b6000608082840312156200030c578081fd5b62000318608062000502565b82519091506001600160401b03808211156200033357600080fd5b620003418583860162000269565b835260208401519150808211156200035857600080fd5b620003668583860162000269565b602084015260408401519150808211156200038057600080fd5b6200038e8583860162000269565b60408401526060840151915080821115620003a857600080fd5b50620003b78482850162000269565b60608301525092915050565b600080600080600080600060e0888a031215620003de578283fd5b620003e9886200024c565b9650620003f9602089016200024c565b955062000409604089016200024c565b606089015160808a015191965094506001600160401b03808211156200042d578485fd5b6200043b8b838c01620002fa565b945060a08a015191508082111562000451578384fd5b6200045f8b838c01620002fa565b935060c08a015191508082111562000475578283fd5b908901906040828c03121562000489578283fd5b604051604081018181108382111715620004a757620004a76200056b565b604052825182811115620004b9578485fd5b620004c78d82860162000269565b825250602083015182811115620004dc578485fd5b620004ea8d82860162000269565b60208301525080935050505092959891949750929550565b6040518181016001600160401b03811182821017156200052657620005266200056b565b604052919050565b6002810460018216806200054357607f821691505b602082108114156200056557634e487b7160e01b600052602260045260246000fd5b50919050565b634e487b7160e01b600052604160045260246000fd5b610b4380620005916000396000f3fe608060405234801561001057600080fd5b50600436106100f55760003560e01c80637150d8ae11610097578063f41d2d7111610066578063f41d2d7114610195578063fa65600a1461019d578063fdf97cb2146101b2578063ff80a389146101ba576100f5565b80637150d8ae14610167578063b1084e7f1461016f578063da84947614610177578063dd257bde1461018d576100f5565b80631afcb321116100d35780631afcb3211461013557806332fc28ec1461013d5780636b566475146101475780636cc332ce1461015f576100f5565b806308551a53146100fa5780630a1792cc14610118578063183f66b61461012d575b600080fd5b6101026101c2565b60405161010f91906108b6565b60405180910390f35b6101206101d1565b60405161010f91906108ca565b6101206101da565b6101206101e8565b6101456101f7565b005b61014f610250565b60405161010f9493929190610903565b61014561048c565b6101026104e8565b61014f6104f7565b61017f610506565b60405161010f9291906108d5565b610145610626565b610145610675565b6101a56106d1565b60405161010f9190610a9d565b6101026106d7565b6101456106e6565b6001546001600160a01b031681565b600e5460ff1681565b600e54610100900460ff1681565b600e5462010000900460ff1681565b6001546001600160a01b0316331461022a5760405162461bcd60e51b815260040161022190610991565b60405180910390fd5b600e805461ff00191690556040513390600080516020610aee83398151915290600090a2565b60088054819061025f90610ab2565b80601f016020809104026020016040519081016040528092919081815260200182805461028b90610ab2565b80156102d85780601f106102ad576101008083540402835291602001916102d8565b820191906000526020600020905b8154815290600101906020018083116102bb57829003601f168201915b5050505050908060010180546102ed90610ab2565b80601f016020809104026020016040519081016040528092919081815260200182805461031990610ab2565b80156103665780601f1061033b57610100808354040283529160200191610366565b820191906000526020600020905b81548152906001019060200180831161034957829003601f168201915b50505050509080600201805461037b90610ab2565b80601f01602080910402602001604051908101604052809291908181526020018280546103a790610ab2565b80156103f45780601f106103c9576101008083540402835291602001916103f4565b820191906000526020600020905b8154815290600101906020018083116103d757829003601f168201915b50505050509080600301805461040990610ab2565b80601f016020809104026020016040519081016040528092919081815260200182805461043590610ab2565b80156104825780601f1061045757610100808354040283529160200191610482565b820191906000526020600020905b81548152906001019060200180831161046557829003601f168201915b5050505050905084565b6001546001600160a01b031633146104b65760405162461bcd60e51b8152600401610221906109c8565b600e805461ff0019166101001790556040513390600080516020610aee83398151915290600090a26104e661073a565b565b6000546001600160a01b031681565b60048054819061025f90610ab2565b600c8054819061051590610ab2565b80601f016020809104026020016040519081016040528092919081815260200182805461054190610ab2565b801561058e5780601f106105635761010080835404028352916020019161058e565b820191906000526020600020905b81548152906001019060200180831161057157829003601f168201915b5050505050908060010180546105a390610ab2565b80601f01602080910402602001604051908101604052809291908181526020018280546105cf90610ab2565b801561061c5780601f106105f15761010080835404028352916020019161061c565b820191906000526020600020905b8154815290600101906020018083116105ff57829003601f168201915b5050505050905082565b6000546001600160a01b031633146106505760405162461bcd60e51b815260040161022190610a66565b600e805460ff191690556040513390600080516020610aee83398151915290600090a2565b6002546001600160a01b0316331461069f5760405162461bcd60e51b8152600401610221906109ff565b600e805462ff00001916620100001790556040513390600080516020610aee83398151915290600090a26104e661073a565b60035481565b6002546001600160a01b031681565b6000546001600160a01b031633146107105760405162461bcd60e51b815260040161022190610a36565b600e805460ff191660011790556040513390600080516020610aee83398151915290600090a26104e65b600e5460ff1680156107535750600e54610100900460ff165b806107845750600e5462010000900460ff1680156107845750600e5460ff16806107845750600e54610100900460ff165b156104e6576003546040517f4423fec52feed3aa8bd2a99c8211cfcc2672119920cb1d206da40301c641d16d916107c09160059160099161095b565b60405180910390a1565b60008151808452815b818110156107ef576020818501810151868301820152016107d3565b818111156108005782602083870101525b50601f01601f19169290920160200192915050565b80546000906002810460018083168061082f57607f831692505b602080841082141561084f57634e487b7160e01b86526022600452602486fd5b6108598489610a9d565b82801561086d576001811461087e576108a9565b60ff198716825282820197506108a9565b61088789610aa6565b60005b878110156108a35781548482015290860190840161088a565b83019850505b5050505050505092915050565b6001600160a01b0391909116815260200190565b901515815260200190565b6000604082526108e860408301856107ca565b82810360208401526108fa81856107ca565b95945050505050565b60006080825261091660808301876107ca565b828103602084015261092881876107ca565b9050828103604084015261093c81866107ca565b9050828103606084015261095081856107ca565b979650505050505050565b60006060825261096e6060830186610815565b82810360208401526109808186610815565b915050826040830152949350505050565b6020808252601a908201527f4f6e6c792073656c6c65722063616e20646973617070726f7665000000000000604082015260600190565b60208082526017908201527f4f6e6c792073656c6c65722063616e20617070726f7665000000000000000000604082015260600190565b60208082526018908201527f4f6e6c7920747275737465652063616e20617070726f76650000000000000000604082015260600190565b6020808252601690820152754f6e6c792062757965722063616e20617070726f766560501b604082015260600190565b60208082526019908201527f4f6e6c792062757965722063616e20646973617070726f766500000000000000604082015260600190565b90815260200190565b60009081526020902090565b600281046001821680610ac657607f821691505b60208210811415610ae757634e487b7160e01b600052602260045260246000fd5b5091905056fe135b662e7c460f01a8962dabbc952859694282ca1f1bfbacf24ebecc00160d35a2646970667358221220632ed66b71a3513e2e0fd08c6773ff9a28315b2eb7d52ed59e4662bb5799e43b64736f6c63430008000033",
  "immutableReferences": {},
  "source": "// SPDX-License-Identifier: MIT\npragma solidity ^0.8.0;\n\ncontract Escrow {\n    address public buyer;\n    address public seller;\n    address public trustee;\n    uint256 public amountINR;\n\n    struct BankDetails {\n        string accountHolderName;\n        string accountNumber;\n        string bankName;\n        string ifscCode;\n    }\n\n    BankDetails public buyerBankDetails;\n    BankDetails public sellerBankDetails;\n\n    struct PayoutAuth {\n        string razorpayApiKey;\n        string razorpayApiSecret;\n    }\n\n    PayoutAuth public payoutAuth;\n\n    bool public buyerApproval;\n    bool public sellerApproval;\n    bool public trusteeApproval;\n\n    event ApprovalReceived(address indexed approver);\n    event PayoutRequested(string buyerAccount, string sellerAccount, uint256 amountINR);\n\n    constructor(\n        address _buyer,\n        address _seller,\n        address _trustee,\n        uint256 _amountINR,\n        BankDetails memory _buyerBankDetails,\n        BankDetails memory _sellerBankDetails,\n        PayoutAuth memory _payoutAuth\n    ) {\n        buyer = _buyer;\n        seller = _seller;\n        trustee = _trustee;\n        amountINR = _amountINR;\n        buyerBankDetails = _buyerBankDetails;\n        sellerBankDetails = _sellerBankDetails;\n        payoutAuth = _payoutAuth;\n    }\n\n    function approveByBuyer() public {\n        require(msg.sender == buyer, \"Only buyer can approve\");\n        buyerApproval = true;\n        emit ApprovalReceived(msg.sender);\n        checkAndRequestPayout();\n    }\n\n    function approveBySeller() public {\n        require(msg.sender == seller, \"Only seller can approve\");\n        sellerApproval = true;\n        emit ApprovalReceived(msg.sender);\n        checkAndRequestPayout();\n    }\n\n    function approveByTrustee() public {\n        require(msg.sender == trustee, \"Only trustee can approve\");\n        trusteeApproval = true;\n        emit ApprovalReceived(msg.sender);\n        checkAndRequestPayout();\n    }\n\n    function disapproveByBuyer() public {\n        require(msg.sender == buyer, \"Only buyer can disapprove\");\n        buyerApproval = false;\n        emit ApprovalReceived(msg.sender);\n    }\n\n    function disapproveBySeller() public {\n        require(msg.sender == seller, \"Only seller can disapprove\");\n        sellerApproval = false;\n        emit ApprovalReceived(msg.sender);\n    }\n\n    function checkAndRequestPayout() internal {\n        if ((buyerApproval && sellerApproval) || (trusteeApproval && (buyerApproval || sellerApproval))) {\n            emit PayoutRequested(buyerBankDetails.accountNumber, sellerBankDetails.accountNumber, amountINR);\n        }\n    }\n}\n",
  "sourcePath": "/Users/arjun.narain/escrow-project/contracts/Escrow.sol",
  "compiler": {
    "name": "solc",
    "version": "0.8.0+commit.c7dfd78e.Emscripten.clang"
  },
  "schemaVersion": "3.4.16",
  "updatedAt": "2024-07-03T19:02:46.958Z",
  "networkType": "ethereum",
  "devdoc": {
    "kind": "dev",
    "methods": {},
    "version": 1
  },
  "userdoc": {
    "kind": "user",
    "methods": {},
    "version": 1
  }
}