{
  "contractName": "Escrow",
  "abi": [
    {
      "inputs": [
        {
          "internalType": "address",
          "name": "_buyer",
          "type": "address"
        },
        {
          "internalType": "address",
          "name": "_seller",
          "type": "address"
        },
        {
          "internalType": "address",
          "name": "_trustee",
          "type": "address"
        },
        {
          "internalType": "uint256",
          "name": "_amountINR",
          "type": "uint256"
        },
        {
          "components": [
            {
              "internalType": "string",
              "name": "accountHolderName",
              "type": "string"
            },
            {
              "internalType": "string",
              "name": "accountNumber",
              "type": "string"
            },
            {
              "internalType": "string",
              "name": "bankName",
              "type": "string"
            },
            {
              "internalType": "string",
              "name": "ifscCode",
              "type": "string"
            }
          ],
          "internalType": "struct Escrow.BankDetails",
          "name": "_buyerBankDetails",
          "type": "tuple"
        },
        {
          "components": [
            {
              "internalType": "string",
              "name": "accountHolderName",
              "type": "string"
            },
            {
              "internalType": "string",
              "name": "accountNumber",
              "type": "string"
            },
            {
              "internalType": "string",
              "name": "bankName",
              "type": "string"
            },
            {
              "internalType": "string",
              "name": "ifscCode",
              "type": "string"
            }
          ],
          "internalType": "struct Escrow.BankDetails",
          "name": "_sellerBankDetails",
          "type": "tuple"
        },
        {
          "components": [
            {
              "internalType": "string",
              "name": "razorpayApiKey",
              "type": "string"
            },
            {
              "internalType": "string",
              "name": "razorpayApiSecret",
              "type": "string"
            }
          ],
          "internalType": "struct Escrow.PayoutAuth",
          "name": "_payoutAuth",
          "type": "tuple"
        }
      ],
      "stateMutability": "nonpayable",
      "type": "constructor"
    },
    {
      "anonymous": false,
      "inputs": [
        {
          "indexed": true,
          "internalType": "address",
          "name": "approver",
          "type": "address"
        }
      ],
      "name": "ApprovalReceived",
      "type": "event"
    },
    {
      "anonymous": false,
      "inputs": [],
      "name": "ContractCompleted",
      "type": "event"
    },
    {
      "anonymous": false,
      "inputs": [
        {
          "indexed": true,
          "internalType": "address",
          "name": "buyer",
          "type": "address"
        },
        {
          "indexed": true,
          "internalType": "address",
          "name": "seller",
          "type": "address"
        },
        {
          "indexed": true,
          "internalType": "address",
          "name": "trustee",
          "type": "address"
        },
        {
          "indexed": false,
          "internalType": "uint256",
          "name": "amountINR",
          "type": "uint256"
        }
      ],
      "name": "EscrowCreated",
      "type": "event"
    },
    {
      "anonymous": false,
      "inputs": [
        {
          "indexed": false,
          "internalType": "string",
          "name": "buyerAccountHolderName",
          "type": "string"
        },
        {
          "indexed": false,
          "internalType": "string",
          "name": "buyerAccountNumber",
          "type": "string"
        },
        {
          "indexed": false,
          "internalType": "string",
          "name": "buyerBankName",
          "type": "string"
        },
        {
          "indexed": false,
          "internalType": "string",
          "name": "buyerIfscCode",
          "type": "string"
        },
        {
          "indexed": false,
          "internalType": "string",
          "name": "sellerAccountHolderName",
          "type": "string"
        },
        {
          "indexed": false,
          "internalType": "string",
          "name": "sellerAccountNumber",
          "type": "string"
        },
        {
          "indexed": false,
          "internalType": "string",
          "name": "sellerBankName",
          "type": "string"
        },
        {
          "indexed": false,
          "internalType": "string",
          "name": "sellerIfscCode",
          "type": "string"
        },
        {
          "indexed": false,
          "internalType": "uint256",
          "name": "amountINR",
          "type": "uint256"
        }
      ],
      "name": "PayoutRequested",
      "type": "event"
    },
    {
      "inputs": [],
      "name": "amountINR",
      "outputs": [
        {
          "internalType": "uint256",
          "name": "",
          "type": "uint256"
        }
      ],
      "stateMutability": "view",
      "type": "function",
      "constant": true
    },
    {
      "inputs": [],
      "name": "buyer",
      "outputs": [
        {
          "internalType": "address",
          "name": "",
          "type": "address"
        }
      ],
      "stateMutability": "view",
      "type": "function",
      "constant": true
    },
    {
      "inputs": [],
      "name": "buyerApproval",
      "outputs": [
        {
          "internalType": "bool",
          "name": "",
          "type": "bool"
        }
      ],
      "stateMutability": "view",
      "type": "function",
      "constant": true
    },
    {
      "inputs": [],
      "name": "buyerBankDetails",
      "outputs": [
        {
          "internalType": "string",
          "name": "accountHolderName",
          "type": "string"
        },
        {
          "internalType": "string",
          "name": "accountNumber",
          "type": "string"
        },
        {
          "internalType": "string",
          "name": "bankName",
          "type": "string"
        },
        {
          "internalType": "string",
          "name": "ifscCode",
          "type": "string"
        }
      ],
      "stateMutability": "view",
      "type": "function",
      "constant": true
    },
    {
      "inputs": [],
      "name": "currentState",
      "outputs": [
        {
          "internalType": "enum Escrow.State",
          "name": "",
          "type": "uint8"
        }
      ],
      "stateMutability": "view",
      "type": "function",
      "constant": true
    },
    {
      "inputs": [],
      "name": "payoutAuth",
      "outputs": [
        {
          "internalType": "string",
          "name": "razorpayApiKey",
          "type": "string"
        },
        {
          "internalType": "string",
          "name": "razorpayApiSecret",
          "type": "string"
        }
      ],
      "stateMutability": "view",
      "type": "function",
      "constant": true
    },
    {
      "inputs": [],
      "name": "seller",
      "outputs": [
        {
          "internalType": "address",
          "name": "",
          "type": "address"
        }
      ],
      "stateMutability": "view",
      "type": "function",
      "constant": true
    },
    {
      "inputs": [],
      "name": "sellerApproval",
      "outputs": [
        {
          "internalType": "bool",
          "name": "",
          "type": "bool"
        }
      ],
      "stateMutability": "view",
      "type": "function",
      "constant": true
    },
    {
      "inputs": [],
      "name": "sellerBankDetails",
      "outputs": [
        {
          "internalType": "string",
          "name": "accountHolderName",
          "type": "string"
        },
        {
          "internalType": "string",
          "name": "accountNumber",
          "type": "string"
        },
        {
          "internalType": "string",
          "name": "bankName",
          "type": "string"
        },
        {
          "internalType": "string",
          "name": "ifscCode",
          "type": "string"
        }
      ],
      "stateMutability": "view",
      "type": "function",
      "constant": true
    },
    {
      "inputs": [],
      "name": "trustee",
      "outputs": [
        {
          "internalType": "address",
          "name": "",
          "type": "address"
        }
      ],
      "stateMutability": "view",
      "type": "function",
      "constant": true
    },
    {
      "inputs": [],
      "name": "trusteeApproval",
      "outputs": [
        {
          "internalType": "bool",
          "name": "",
          "type": "bool"
        }
      ],
      "stateMutability": "view",
      "type": "function",
      "constant": true
    },
    {
      "inputs": [],
      "name": "approveByBuyer",
      "outputs": [],
      "stateMutability": "nonpayable",
      "type": "function"
    },
    {
      "inputs": [],
      "name": "approveBySeller",
      "outputs": [],
      "stateMutability": "nonpayable",
      "type": "function"
    },
    {
      "inputs": [],
      "name": "approveByTrustee",
      "outputs": [],
      "stateMutability": "nonpayable",
      "type": "function"
    },
    {
      "inputs": [],
      "name": "disapproveByBuyer",
      "outputs": [],
      "stateMutability": "nonpayable",
      "type": "function"
    },
    {
      "inputs": [],
      "name": "disapproveBySeller",
      "outputs": [],
      "stateMutability": "nonpayable",
      "type": "function"
    },
    {
      "inputs": [],
      "name": "completeContract",
      "outputs": [],
      "stateMutability": "nonpayable",
      "type": "function"
    }
  ],
  "bytecode": "0x60806040523480156200001157600080fd5b50604051620014a2380380620014a2833981016040819052620000349162000419565b600080546001600160a01b03808a166001600160a01b031992831617909255600180548984169083161790556002805492881692909116919091179055600384905582518051849160059162000092918391602090910190620001fc565b506020828101518051620000ad9260018501920190620001fc565b5060408201518051620000cb916002840191602090910190620001fc565b5060608201518051620000e9916003840191602090910190620001fc565b5050825180518492506009916200010691839160200190620001fc565b506020828101518051620001219260018501920190620001fc565b50604082015180516200013f916002840191602090910190620001fc565b50606082015180516200015d916003840191602090910190620001fc565b505081518051839250600d916200017a91839160200190620001fc565b506020828101518051620001959260018501920190620001fc565b50506004805460ff19169055506040516001600160a01b0380871691888216918a16907fd99c67ae0185d6b0a36717d67d259f252914f7955744e4d81a91685ff480896d90620001e790899062000558565b60405180910390a450505050505050620005e0565b8280546200020a906200058d565b90600052602060002090601f0160209004810192826200022e576000855562000279565b82601f106200024957805160ff191683800117855562000279565b8280016001018555821562000279579182015b82811115620002795782518255916020019190600101906200025c565b50620002879291506200028b565b5090565b5b808211156200028757600081556001016200028c565b80516001600160a01b0381168114620002ba57600080fd5b919050565b600082601f830112620002d0578081fd5b81516001600160401b03811115620002ec57620002ec620005ca565b602062000302601f8301601f1916820162000561565b828152858284870101111562000316578384fd5b835b838110156200033557858101830151828201840152820162000318565b838111156200034657848385840101525b5095945050505050565b60006080828403121562000362578081fd5b6200036e608062000561565b82519091506001600160401b03808211156200038957600080fd5b6200039785838601620002bf565b83526020840151915080821115620003ae57600080fd5b620003bc85838601620002bf565b60208401526040840151915080821115620003d657600080fd5b620003e485838601620002bf565b60408401526060840151915080821115620003fe57600080fd5b506200040d84828501620002bf565b60608301525092915050565b600080600080600080600060e0888a03121562000434578283fd5b6200043f88620002a2565b96506200044f60208901620002a2565b95506200045f60408901620002a2565b606089015160808a015191965094506001600160401b038082111562000483578485fd5b620004918b838c0162000350565b945060a08a0151915080821115620004a7578384fd5b620004b58b838c0162000350565b935060c08a0151915080821115620004cb578283fd5b908901906040828c031215620004df578283fd5b604051604081018181108382111715620004fd57620004fd620005ca565b6040528251828111156200050f578485fd5b6200051d8d828601620002bf565b82525060208301518281111562000532578485fd5b620005408d828601620002bf565b60208301525080935050505092959891949750929550565b90815260200190565b6040518181016001600160401b0381118282101715620005855762000585620005ca565b604052919050565b600281046001821680620005a257607f821691505b60208210811415620005c457634e487b7160e01b600052602260045260246000fd5b50919050565b634e487b7160e01b600052604160045260246000fd5b610eb280620005f06000396000f3fe608060405234801561001057600080fd5b506004361061010b5760003560e01c80637150d8ae116100a2578063dd257bde11610071578063dd257bde146101c0578063f41d2d71146101c8578063fa65600a146101d0578063fdf97cb2146101e5578063ff80a389146101ed5761010b565b80637150d8ae14610192578063b1084e7f1461019a578063b4fedc11146101a2578063da849476146101aa5761010b565b80631afcb321116100de5780631afcb3211461016057806332fc28ec146101685780636b566475146101725780636cc332ce1461018a5761010b565b806308551a53146101105780630a1792cc1461012e5780630c3f6acf14610143578063183f66b614610158575b600080fd5b6101186101f5565b6040516101259190610afe565b60405180910390f35b610136610204565b6040516101259190610b12565b61014b61020d565b6040516101259190610b1d565b610136610216565b610136610224565b610170610233565b005b61017a6102d0565b6040516101259493929190610b73565b61017061050c565b6101186105ac565b61017a6105bb565b6101706105ca565b6101b2610670565b604051610125929190610b45565b610170610790565b610170610823565b6101d86108c3565b6040516101259190610e0c565b6101186108c9565b6101706108d8565b6001546001600160a01b031681565b600f5460ff1681565b60045460ff1681565b600f54610100900460ff1681565b600f5462010000900460ff1681565b600060045460ff16600181111561025a57634e487b7160e01b600052602160045260246000fd5b146102805760405162461bcd60e51b815260040161027790610cba565b60405180910390fd5b6001546001600160a01b031633146102aa5760405162461bcd60e51b815260040161027790610c83565b600f805461ff00191690556040513390600080516020610e5d83398151915290600090a2565b6009805481906102df90610e21565b80601f016020809104026020016040519081016040528092919081815260200182805461030b90610e21565b80156103585780601f1061032d57610100808354040283529160200191610358565b820191906000526020600020905b81548152906001019060200180831161033b57829003601f168201915b50505050509080600101805461036d90610e21565b80601f016020809104026020016040519081016040528092919081815260200182805461039990610e21565b80156103e65780601f106103bb576101008083540402835291602001916103e6565b820191906000526020600020905b8154815290600101906020018083116103c957829003601f168201915b5050505050908060020180546103fb90610e21565b80601f016020809104026020016040519081016040528092919081815260200182805461042790610e21565b80156104745780601f1061044957610100808354040283529160200191610474565b820191906000526020600020905b81548152906001019060200180831161045757829003601f168201915b50505050509080600301805461048990610e21565b80601f01602080910402602001604051908101604052809291908181526020018280546104b590610e21565b80156105025780601f106104d757610100808354040283529160200191610502565b820191906000526020600020905b8154815290600101906020018083116104e557829003601f168201915b5050505050905084565b600060045460ff16600181111561053357634e487b7160e01b600052602160045260246000fd5b146105505760405162461bcd60e51b815260040161027790610cba565b6001546001600160a01b0316331461057a5760405162461bcd60e51b815260040161027790610cf1565b600f805461ff0019166101001790556040513390600080516020610e5d83398151915290600090a26105aa610970565b565b6000546001600160a01b031681565b6005805481906102df90610e21565b600060045460ff1660018111156105f157634e487b7160e01b600052602160045260246000fd5b1461060e5760405162461bcd60e51b815260040161027790610cba565b6002546001600160a01b031633146106385760405162461bcd60e51b815260040161027790610dc6565b6004805460ff191660011790556040517f21af1b35312e092d631654105d02329ce4aa3a7aa58f89d2e61e3fa80874dd8c90600090a1565b600d8054819061067f90610e21565b80601f01602080910402602001604051908101604052809291908181526020018280546106ab90610e21565b80156106f85780601f106106cd576101008083540402835291602001916106f8565b820191906000526020600020905b8154815290600101906020018083116106db57829003601f168201915b50505050509080600101805461070d90610e21565b80601f016020809104026020016040519081016040528092919081815260200182805461073990610e21565b80156107865780601f1061075b57610100808354040283529160200191610786565b820191906000526020600020905b81548152906001019060200180831161076957829003601f168201915b5050505050905082565b600060045460ff1660018111156107b757634e487b7160e01b600052602160045260246000fd5b146107d45760405162461bcd60e51b815260040161027790610cba565b6000546001600160a01b031633146107fe5760405162461bcd60e51b815260040161027790610d8f565b600f805460ff191690556040513390600080516020610e5d83398151915290600090a2565b600060045460ff16600181111561084a57634e487b7160e01b600052602160045260246000fd5b146108675760405162461bcd60e51b815260040161027790610cba565b6002546001600160a01b031633146108915760405162461bcd60e51b815260040161027790610d28565b600f805462ff00001916620100001790556040513390600080516020610e5d83398151915290600090a26105aa610970565b60035481565b6002546001600160a01b031681565b600060045460ff1660018111156108ff57634e487b7160e01b600052602160045260246000fd5b1461091c5760405162461bcd60e51b815260040161027790610cba565b6000546001600160a01b031633146109465760405162461bcd60e51b815260040161027790610d5f565b600f805460ff191660011790556040513390600080516020610e5d83398151915290600090a26105aa5b600f5460ff1680156109895750600f54610100900460ff165b806109ba5750600f5462010000900460ff1680156109ba5750600f5460ff16806109ba5750600f54610100900460ff165b156105aa576003546040517fcb88be8b613994e3054133de733e8b7af2e0a3613877928da103d77275bdcb5e91610a0891600591600691600791600891600991600a91600b91600c91610bcb565b60405180910390a1565b60008151808452815b81811015610a3757602081850181015186830182015201610a1b565b81811115610a485782602083870101525b50601f01601f19169290920160200192915050565b805460009060028104600180831680610a7757607f831692505b6020808410821415610a9757634e487b7160e01b86526022600452602486fd5b610aa18489610e0c565b828015610ab55760018114610ac657610af1565b60ff19871682528282019750610af1565b610acf89610e15565b60005b87811015610aeb57815484820152908601908401610ad2565b83019850505b5050505050505092915050565b6001600160a01b0391909116815260200190565b901515815260200190565b6020810160028310610b3f57634e487b7160e01b600052602160045260246000fd5b91905290565b600060408252610b586040830185610a12565b8281036020840152610b6a8185610a12565b95945050505050565b600060808252610b866080830187610a12565b8281036020840152610b988187610a12565b90508281036040840152610bac8186610a12565b90508281036060840152610bc08185610a12565b979650505050505050565b6000610120808352610bdf8184018d610a5d565b90508281036020840152610bf3818c610a5d565b90508281036040840152610c07818b610a5d565b90508281036060840152610c1b818a610a5d565b90508281036080840152610c2f8189610a5d565b905082810360a0840152610c438188610a5d565b905082810360c0840152610c578187610a5d565b905082810360e0840152610c6b8186610a5d565b915050826101008301529a9950505050505050505050565b6020808252601a908201527f4f6e6c792073656c6c65722063616e20646973617070726f7665000000000000604082015260600190565b6020808252601c908201527f436f6e7472616374206973206e6f206c6f6e6765722061637469766500000000604082015260600190565b60208082526017908201527f4f6e6c792073656c6c65722063616e20617070726f7665000000000000000000604082015260600190565b60208082526018908201527f4f6e6c7920747275737465652063616e20617070726f76650000000000000000604082015260600190565b6020808252601690820152754f6e6c792062757965722063616e20617070726f766560501b604082015260600190565b60208082526019908201527f4f6e6c792062757965722063616e20646973617070726f766500000000000000604082015260600190565b60208082526026908201527f4f6e6c7920747275737465652063616e20636f6d706c6574652074686520636f6040820152651b9d1c9858dd60d21b606082015260800190565b90815260200190565b60009081526020902090565b600281046001821680610e3557607f821691505b60208210811415610e5657634e487b7160e01b600052602260045260246000fd5b5091905056fe135b662e7c460f01a8962dabbc952859694282ca1f1bfbacf24ebecc00160d35a2646970667358221220677be7f87c43ca4c4b6bbbda80a8289a1336bed9bac1783603e1749ee713c2bc64736f6c63430008000033",
  "immutableReferences": {},
  "source": "// SPDX-License-Identifier: MIT\npragma solidity ^0.8.0;\n\ncontract Escrow {\n    address public buyer;\n    address public seller;\n    address public trustee;\n    uint256 public amountINR;\n\n    enum State { Active, Completed }\n    State public currentState;\n\n    struct BankDetails {\n        string accountHolderName;\n        string accountNumber;\n        string bankName;\n        string ifscCode;\n    }\n\n    BankDetails public buyerBankDetails;\n    BankDetails public sellerBankDetails;\n\n    struct PayoutAuth {\n        string razorpayApiKey;\n        string razorpayApiSecret;\n    }\n\n    PayoutAuth public payoutAuth;\n\n    bool public buyerApproval;\n    bool public sellerApproval;\n    bool public trusteeApproval;\n\n    event ApprovalReceived(address indexed approver);\n    event PayoutRequested(\n        string buyerAccountHolderName,\n        string buyerAccountNumber,\n        string buyerBankName,\n        string buyerIfscCode,\n        string sellerAccountHolderName,\n        string sellerAccountNumber,\n        string sellerBankName,\n        string sellerIfscCode,\n        uint256 amountINR\n    );\n    event ContractCompleted();\n\n    modifier onlyActive() {\n        require(currentState == State.Active, \"Contract is no longer active\");\n        _;\n    }\n\n    modifier canComplete() {\n        require(\n            msg.sender == trustee,\n            \"Only trustee can complete the contract\"\n        );\n        _;\n    }\n\n    event EscrowCreated(\n        address indexed buyer,\n        address indexed seller,\n        address indexed trustee,\n        uint256 amountINR\n    );\n\n    constructor(\n        address _buyer,\n        address _seller,\n        address _trustee,\n        uint256 _amountINR,\n        BankDetails memory _buyerBankDetails,\n        BankDetails memory _sellerBankDetails,\n        PayoutAuth memory _payoutAuth\n    ) {\n        buyer = _buyer;\n        seller = _seller;\n        trustee = _trustee;\n        amountINR = _amountINR;\n        buyerBankDetails = _buyerBankDetails;\n        sellerBankDetails = _sellerBankDetails;\n        payoutAuth = _payoutAuth;\n        currentState = State.Active;\n\n        emit EscrowCreated(_buyer, _seller, _trustee, _amountINR);\n    }\n\n    function approveByBuyer() public onlyActive {\n        require(msg.sender == buyer, \"Only buyer can approve\");\n        buyerApproval = true;\n        emit ApprovalReceived(msg.sender);\n        checkAndRequestPayout();\n    }\n\n    function approveBySeller() public onlyActive {\n        require(msg.sender == seller, \"Only seller can approve\");\n        sellerApproval = true;\n        emit ApprovalReceived(msg.sender);\n        checkAndRequestPayout();\n    }\n\n    function approveByTrustee() public onlyActive {\n        require(msg.sender == trustee, \"Only trustee can approve\");\n        trusteeApproval = true;\n        emit ApprovalReceived(msg.sender);\n        checkAndRequestPayout();\n    }\n\n    function disapproveByBuyer() public onlyActive {\n        require(msg.sender == buyer, \"Only buyer can disapprove\");\n        buyerApproval = false;\n        emit ApprovalReceived(msg.sender);\n    }\n\n    function disapproveBySeller() public onlyActive {\n        require(msg.sender == seller, \"Only seller can disapprove\");\n        sellerApproval = false;\n        emit ApprovalReceived(msg.sender);\n    }\n\n    function checkAndRequestPayout() internal {\n        if ((buyerApproval && sellerApproval) || (trusteeApproval && (buyerApproval || sellerApproval))) {\n            emit PayoutRequested(\n                buyerBankDetails.accountHolderName,\n                buyerBankDetails.accountNumber,\n                buyerBankDetails.bankName,\n                buyerBankDetails.ifscCode,\n                sellerBankDetails.accountHolderName,\n                sellerBankDetails.accountNumber,\n                sellerBankDetails.bankName,\n                sellerBankDetails.ifscCode,\n                amountINR\n            );\n        }\n    }\n\n    function completeContract() public onlyActive canComplete {\n        currentState = State.Completed;\n        emit ContractCompleted();\n    }\n}",
  "sourcePath": "/Users/arjun.narain/escrow-project/contracts/Escrow.sol",
  "compiler": {
    "name": "solc",
    "version": "0.8.0+commit.c7dfd78e.Emscripten.clang"
  },
  "schemaVersion": "3.4.16",
  "updatedAt": "2024-07-04T18:15:40.871Z",
  "networkType": "ethereum",
  "devdoc": {
    "kind": "dev",
    "methods": {},
    "version": 1
  },
  "userdoc": {
    "kind": "user",
    "methods": {},
    "version": 1
  }
}